S017000041726475696E6F55415254546573742E737265635F
S113000071C0000079C0000077C0000075C0000016
S113001073C0000071C000006FC000006DC000001C
S11300206BC0000069C0000067C0000065C000002C
S113003063C0000061C000005FC000005DC000003C
S11300405BC0000059C0000057C0000055C000004C
S113005053C0000051C000004FC000004DC000005C
S11300604BC0000049C0000047C0000045C000006C
S113007043C0000041C000003FC000003DC000007C
S11300803BC0000039C0000037C0000035C000008C
S113009033C0000031C000002FC000002DC000009C
S11300A02BC0000029C0000027C0000025C00000AC
S11300B023C0000021C000001FC000001DC00000BC
S11300C01BC0000019C0000017C0000015C00000CC
S11300D013C0000011C000000FC000000DC00000DC
S11300E00BC0000011241FBECFEFD1E2DEBFCDBF95
S11300F000E00CBF02D0B7C083CF8FEF84B92EE4E9
S113010048E060E875E280E090E00BD0CFEF86D065
S1130110803319F0813319F0FACFC5B9F8CF15B887
S1130120F6CF0F931F93CF93DF93C42FD22F8B015E
S11301309C010C52114021093109053D104C21400C
S1130140310508F066C02BEF2C0F243008F061C095
S1130150E0ECF0E020812C7F208328E12093C10093
S1130160E2ECF0E020811082DC01CB01880F991FC2
S1130170AA1FBB1F880F991FAA1FBB1F9C01AD019B
S1130180220F331F441F551F220F331F441F551FB7
S113019060E074E284EF90E044D021503109309360
S11301A0C5002093C400C63071F018F4C53031F096
S11301B01BC0C73071F0C83091F016C0E2ECF0E01B
S11301C08081808311C0E2ECF0E0808182608083D2
S11301D00BC0E2ECF0E080818460808305C0E2EC37
S11301E0F0E0808186608083D53419F0DF3439F003
S11301F00CC0E2ECF0E08081806280830AC0E2EC13
S1130200F0E080818063808304C0E2ECF0E08081D0
S11302108083DF91CF911F910F9108958091C60043
S11302200895A1E21A2EAA1BBB1BFD010DC0AA1F33
S1130230BB1FEE1FFF1FA217B307E407F50720F04B
S1130240A21BB30BE40BF50B661F771F881F991FC6
S11302501A9469F760957095809590959B01AC010F
S10D0260BD01CF010895F894FFCF0B
S9030000FC
