S017000041726475696E6F55415254546573742E737265635F
S113000071C000008EC000008CC000008AC00000D7
S113001088C0000086C0000084C0000082C00000C8
S113002080C000007EC000007CC000007AC00000D8
S113003078C0000076C0000074C0000072C00000E8
S113004070C000006EC000006CC000006AC00000F8
S113005068C0000066C0000064C0000062C0000008
S113006060C000005FC000005CC000005AC0000017
S113007058C0000056C0000054C0000052C0000028
S113008050C000004EC000004CC000004AC0000038
S113009048C0000046C0000044C0000042C0000048
S11300A040C000003EC000003CC000003AC0000058
S11300B038C0000036C0000034C0000032C0000068
S11300C030C000002EC000002CC000002AC0000078
S11300D028C0000026C0000024C0000022C0000088
S11300E020C0000011241FBECFEFD1E2DEBFCDBF80
S11300F000E00CBF12E0A0E0B2E0E6E9F3E000E0CB
S11301000BBF02C007900D92A230B107D9F722E0CD
S1130110A2E0B2E001C01D92A330B207E1F763D0C0
S113012038C16ECF1F920F920FB60F9211240BB6E7
S11301300F922F933F934F935F936F937F938F937C
S11301409F93AF93BF93EF93FF93F6D090E0959571
S113015087959595879595958795959587958230FB
S1130160910571F01CF4019739F02AC08330910590
S113017059F00497E9F024C081E3E1D0289A20C023
S113018081E3DDD028981CC080910002882319F0F7
S113019080E3D5D015C09091020281E08927809335
S11301A00202811102C084E401C081E4C8D008C005
S11301B081E3C5D09091000281E0892780930002F9
S11301C0FF91EF91BF91AF919F918F917F916F912B
S11301D05F914F913F912F910F900BBE0F900FBEE7
S11301E00F901F901895789401E02EE448E060E8A1
S11301F075E280E090E011D08FEF84B98091020223
S1130200882311F0299A01C029988091000288233B
S113021011F02A9AF3CF2A98F1CFCF92DF92EF927E
S1130220FF920F93CF93DF93C42FD22F6B017C01E6
S11302302CE2C21A21E0D20AE108F10825EDC21627
S113024020ECD20621E0E206F10408F06DC02BEFA9
S1130250240F243008F068C0E0ECF0E020812C7F0B
S1130260208328E12093C100E2ECF0E02081108299
S1130270DC01CB01880F991FAA1FBB1F880F991F90
S1130280AA1FBB1F9C01AD01220F331F441F551F22
S1130290220F331F441F551F60E074E284EF90E087
S11302A056D0215031093093C5002093C400C63084
S11302B071F018F4C53031F01BC0C73071F0C8308C
S11302C091F016C0E2ECF0E08081808311C0E2EC92
S11302D0F0E08081826080830BC0E2ECF0E08081FA
S11302E08460808305C0E2ECF0E0808186608083D6
S11302F0D53419F0DF3439F00CC0E2ECF0E0808141
S1130300806280830AC0E2ECF0E0808180638083B5
S113031004C0E2ECF0E080818083002329F0E1EC6A
S1130320F0E0808180688083DF91CF910F91FF900E
S1130330EF90DF90CF9008958091C6000895E0EC8F
S1130340F0E0908195FFFDCF8093C6000895A1E26F
S11303501A2EAA1BBB1BFD010DC0AA1FBB1FEE1F3B
S1130360FF1FA217B307E407F50720F0A21BB30B86
S1130370E40BF50B661F771F881F991F1A9469F702
S113038060957095809590959B01AC01BD01CF015E
S10903900895F894FFCF6C
S1050396010060
S9030000FC
