S0140000783130204D6F6474616765722E73726563E4
S113000072C0000091C000008FC00000E4C0000076
S11300108BC0000089C0000087C0000085C00000BC
S113002083C0000081C000007FC000007DC00000CC
S11300307BC0000079C0000077C0000075C00000DC
S113004073C0000071C000006FC000006DC00000EC
S11300506BC0000069C0000067C0000065C00000FC
S113006063C0000061C000005FC000005DC000000C
S11300705BC0000059C0000057C0000055C000001C
S113008053C0000051C000004FC000004EC000002B
S11300904BC0000049C0000047C0000045C000003C
S11300A043C0000041C000003FC000003DC000004C
S11300B03BC0000065C0000037C0000035C0000030
S11300C033C0000031C000002FC000002DC000006C
S11300D02BC0000029C0000027C0000025C000007C
S11300E023C00000400111241FBECFEFD1E2DEBFC8
S11300F0CDBF00E00CBF22E0A0E0B2E001C01D9241
S1130100AA30B207E1F710E0C3E7D0E000E005C091
S113011021970109802FFE0122D1C237D10780E047
S11301200807B1F793D023C16BCF1F920F920FB67C
S11301300F9211240BB60F922F933F934F935F931B
S11301406F937F938F939F93AF93BF93EF93FF939B
S11301501092910080E092E0A2D0FF91EF91BF91C4
S1130160AF919F918F917F916F915F914F913F914B
S11301702F910F900BBE0F900FBE0F901F901895EC
S11301801F920F920FB60F9211240BB60F922F935A
S11301903F934F935F936F937F938F939F93AF930B
S11301A0BF93EF93FF931092A10080E092E077D089
S11301B0FF91EF91BF91AF919F918F917F916F913B
S11301C05F914F913F912F910F900BBE0F900FBEF7
S11301D00F901F9018951F920F920FB60F92112433
S11301E00BB60F922F933F934F935F936F937F932D
S11301F08F939F93AF93BF93EF93FF9380E092E02D
S11302004ED081E0809391008AEA9FE2909395001A
S11302108093940083E08093A1008DE799EF9093FD
S1130220A5008093A400FF91EF91BF91AF919F919E
S11302308F917F916F915F914F913F912F910F908B
S11302400BBE0F900FBE0F901F90189578941092CC
S113025090001092910081E0809371001092A000B0
S11302601092A1008093720080E28093690084E080
S11302708DBB8FEF84B9109201011AB880BBFFCFF8
S113028049E669E680E092E001C00895FC0110822D
S11302906283418314821582168210860895FC01BC
S11302A08FE891E00197F1F700C0000011BA808156
S11302B0882319F0813099F008958481880F84830C
S11302C09091000195FF02C08160848384818F70C6
S11302D08E3009F043C081E08083108608959681B2
S11302E0990F96838581882314F491609683982FBF
S11302F0990F9583878181FF02C091609583880F50
S113030087839091000195FF02C081608783808577
S11303108F5F8087823110F11082928186819813D9
S11303201DC087818370813019F0823051F00895A7
S113033091818581981303C081E08383089513829A
S113034008958381882351F08581893519F08A3590
S113035021F008958FEF85B9089515B80895EE0F2B
S1130360FF1F881F8BBF0790F691E02D1994F89416
S1050370FFCFB9
S9030000FC
