:1000000072C00000E8C000008FC000008DC000007A
:100010008BC0000089C0000087C0000085C00000C0
:1000200083C0000081C000007FC000007DC00000D0
:100030007BC0000079C0000077C0000075C00000E0
:1000400073C0000071C000006FC000006DC00000F0
:100050006BC0000069C0000067C0000065C0000000
:1000600063C0000061C000005FC000005DC0000010
:100070005BC0000059C0000057C0000055C0000020
:1000800053C0000051C000004FC000004EC000002F
:100090004BC0000049C0000047C0000045C0000040
:1000A00043C0000041C000003FC000003DC0000050
:1000B0003BC0000065C0000037C0000035C0000034
:1000C00033C0000031C000002FC000002DC0000070
:1000D0002BC0000029C0000027C0000025C0000080
:1000E00023C000002B0111241FBECFEFD1E2DEBFE1
:1000F000CDBF00E00CBF22E0A0E0B2E001C01D9245
:10010000AA30B207E1F710E0C3E7D0E000E005C095
:1001100021970109802FFE0108D1C237D10780E065
:100120000807B1F781D009C16BCF1F920F920FB6AC
:100130000F9211240BB60F922F933F934F935F931F
:100140006F937F938F939F93AF93BF93EF93FF939F
:100150001092910080E092E08DD0FF91EF91BF91DD
:10016000AF919F918F917F916F915F914F913F914F
:100170002F910F900BBE0F900FBE0F901F901895F0
:100180001F920F920FB60F9211240BB60F922F935E
:100190003F934F935F936F937F938F939F93AF930F
:1001A000BF93EF93FF931092A10080E092E062D0A2
:1001B000FF91EF91BF91AF919F918F917F916F913F
:1001C0005F914F913F912F910F900BBE0F900FBEFB
:1001D0000F901F9018951F920F920FB60F92112437
:1001E0000BB60F922F933F934F935F936F937F9331
:1001F0008F939F93AF93BF93EF93FF9380E092E031
:1002000039D0FF91EF91BF91AF919F918F917F91E5
:100210006F915F914F913F912F910F900BBE0F9077
:100220000FBE0F901F901895789410929000109226
:10023000910081E0809371001092A0001092A100C3
:100240008093720092E0909369008DBB11B88FEF9C
:1002500084B91AB8FFCF49E669E680E092E001C0B0
:100260000895FC01108262834183148215821682F4
:1002700010860895FC018081882319F0813089F06F
:1002800008958481880F8483499B02C081608483A0
:1002900084818F708E3009F047C081E080831086A2
:1002A00008959681990F96838581882314F491602F
:1002B0009683982F990F9583878181FF02C0916063
:1002C0009583880F8783499B02C0816087838085DF
:1002D0008F5F8087823140F11082928186819813EE
:1002E00023C087818370813019F0823051F00895E6
:1002F00091818581981303C081E0838308951382DF
:10030000089581858F5F81879381992369F0823079
:1003100058F08581893519F08A3521F004C08FEFB6
:1003200085B901C015B811860895EE0FFF1F881F0B
:0E0330008BBF0790F691E02D1994F894FFCF43
:00000001FF
