:1000000072C00000E8C000008FC000008DC000007A
:100010008BC0000089C0000087C0000085C00000C0
:1000200083C0000081C000007FC000007DC00000D0
:100030007BC0000079C0000077C0000075C00000E0
:1000400073C0000071C000006FC000006DC00000F0
:100050006BC0000069C0000067C0000065C0000000
:1000600063C0000061C000005FC000005DC0000010
:100070005BC0000059C0000057C0000055C0000020
:1000800053C0000051C000004FC000004EC000002F
:100090004BC0000049C0000047C0000045C0000040
:1000A00043C0000041C000003FC000003DC0000050
:1000B0003BC0000065C0000037C0000035C0000034
:1000C00033C0000031C000002FC000002DC0000070
:1000D0002BC0000029C0000027C0000025C0000080
:1000E00023C000003C0111241FBECFEFD1E2DEBFD0
:1000F000CDBF00E00CBF22E0A0E0B2E001C01D9245
:10010000A930B207E1F710E0C3E7D0E000E005C096
:1001100021970109802FFE01F4D0C237D10780E07A
:100120000807B1F793D0F5C06BCF1F920F920FB6AF
:100130000F9211240BB60F922F933F934F935F931F
:100140006F937F938F939F93AF93BF93EF93FF939F
:100150001092910080E092E09ED0FF91EF91BF91CC
:10016000AF919F918F917F916F915F914F913F914F
:100170002F910F900BBE0F900FBE0F901F901895F0
:100180001F920F920FB60F9211240BB60F922F935E
:100190003F934F935F936F937F938F939F93AF930F
:1001A000BF93EF93FF931092A10080E092E073D091
:1001B000FF91EF91BF91AF919F918F917F916F913F
:1001C0005F914F913F912F910F900BBE0F900FBEFB
:1001D0000F901F9018951F920F920FB60F92112437
:1001E0000BB60F922F933F934F935F936F937F9331
:1001F0008F939F93AF93BF93EF93FF9380E092E031
:100200004AD081E0809391008AEA9FE29093950022
:100210008093940083E08093A1008DE799EF909301
:10022000A5008093A400FF91EF91BF91AF919F91A2
:100230008F917F916F915F914F913F912F910F908F
:100240000BBE0F900FBE0F901F90189578941092D0
:1002500090001092910081E0809371001092A000B4
:100260001092A1008093720092E0909369008DBB80
:1002700011B814B81AB8FFCF46E066E080E092E00B
:1002800001C00895FC0110826283418314821582AB
:10029000168210860895FC018081882319F0813030
:1002A00059F008958481880F84838F708E3041F5D2
:1002B00081E08083108608952681220F2683358170
:1002C000330F35839781990F978380858F5F808760
:1002D0008231B0F08281281313C09370913019F0ED
:1002E000923049F00BC08181381303C081E08383D1
:1002F00005C0138203C08381882311F081E08083CD
:100300000895EE0FFF1F881F8BBF0790F691E02D19
:060310001994F894FFCFE0
:00000001FF
