:1000000072C000009EC000009CC0000084C10000BF
:1000100098C0000096C0000094C0000092C000008C
:1000200090C000008EC000008CC000008AC000009C
:1000300088C0000086C0000084C0000082C00000AC
:1000400080C000007EC000007CC000007AC00000BC
:10005000FEC0000076C0000074C0000072C0000046
:1000600070C0000088C000006CC000006AC00000C2
:1000700068C0000066C0000064C0000062C00000EC
:1000800060C000005EC000005CC00000EEC0000068
:1000900058C0000056C0000054C0000052C000000C
:1000A00050C000004EC000004CC000004AC000001C
:1000B00048C0000005C1000044C0000042C000006C
:1000C00040C000003EC000003CC000003AC000003C
:1000D00038C0000036C0000034C0000032C000004C
:1000E00030C00000200211241FBECFEFD1E2DEBFDE
:1000F000CDBF00E00CBF12E0A0E0B2E0E0E0F9E02C
:1001000000E00BBF02C007900D92AA36B107D9F7E5
:1001100022E0AAE6B2E001C01D92A43DB207E1F7D9
:1001200010E0C3E7D0E000E005C021970109802F6F
:10013000FE014CD3C237D10780E00807B1F726D1C2
:10014000DDC35ECFAC0118161906A4F420E030E040
:100150006FEF89E698E1615080409040E1F700C080
:10016000000090916B02992329F02F5F3F4F4217B7
:10017000530771F708951F920F920FB60F92112433
:100180000BB60F922F933F934F935F936F937F9391
:100190008F939F93AF93BF93CF93EF93FF93C2D26D
:1001A000C82F90E095958795959587959595879516
:1001B000959587958230910589F083309105C9F036
:1001C000019789F581E3B1D281E080936A024C2FD7
:1001D0004F7062E08CE692E0BCD125C081E3A5D2ED
:1001E00010926A024C2F4F7063E08CE692E0B1D11E
:1001F0001AC080910402882319F080E396D213C0BC
:1002000090916B0281E0892780936B02882311F023
:100210002A9A01C02A9880916B02811102C084E45D
:1002200001C081E482D2FF91EF91CF91BF91AF9154
:100230009F918F917F916F915F914F913F912F91FE
:100240000F900BBE0F900FBE0F901F9018951F922E
:100250000F920FB60F92112415BC109281002798AF
:100260000F900FBE0F901F9018951F920F920FB610
:100270000F9211240BB60F922F933F934F935F93DE
:100280006F937F938F939F93AF93BF93EF93FF935E
:10029000109291008CE692E039D1FF91EF91BF91DD
:1002A000AF919F918F917F916F915F914F913F910E
:1002B0002F910F900BBE0F900FBE0F901F901895AF
:1002C0001F920F920FB60F9211240BB60F922F931D
:1002D0003F934F935F936F937F938F939F93AF93CE
:1002E000BF93EF93FF931092A1008CE692E00ED1A2
:1002F000FF91EF91BF91AF919F918F917F916F91FE
:100300005F914F913F912F910F900BBE0F900FBEB9
:100310000F901F9018951F920F920FB60F921124F5
:100320000BB60F922F933F934F935F936F937F93EF
:100330008F939F93AF93BF93EF93FF938CE692E0DD
:10034000E5D081E0809391008AEA9FE29093950046
:100350008093940083E08093A1008DE799EF9093C0
:10036000A5008093A400FF91EF91BF91AF919F9161
:100370008F917F916F915F914F913F912F910F904E
:100380000BBE0F900FBE0F901F901895789401E050
:100390002EE448E060E875E280E090E034D182E449
:1003A00084BD15BC87BD109280001092810081E051
:1003B00080936F00109290001092910080937100D2
:1003C0001092A0001092A1008093720080E28093AE
:1003D000690084E08DBB8FEF84B91AB8C0E0D1E02A
:1003E000102F0F2EF9E0EF2EF12CF02D888185FFD4
:1003F00004C010920402299A03C0109304022998A1
:1004000080916B02882391F330D2B70196D1019687
:1004100099DE80916B02882349F380916A028027DC
:1004200080936A02882331F046E062E08CE692E035
:1004300090D0DCCF46E063E08CE692E08AD0D6CF65
:1004400066E08CE692E001C00895CF93DF93CDB7CC
:10045000DEB7C556D1090FB6F894DEBF0FBECDBFCB
:10046000AC01FC016083118285E6E5E0F2E0DE018B
:10047000119601900D928A95E1F7FE013196DA010D
:1004800012969E012A593F4F91919D932E173F0737
:10049000D9F7FA01608170E0DA015C9623E030E080
:1004A00090E381E3AB01022E02C0559547950A9473
:1004B000E2F740FF0DC0868397838C93958F80AFC2
:1004C00091AFD2968C93D297D3969C93D3970CC02E
:1004D000968387839C93858F90AF81AFD2969C93B0
:1004E000D297D3968C93D397215031093296129696
:1004F0002F3F4FEF3407B1F6CB59DF4F0FB6F894CB
:10050000DEBF0FBECDBFDF91CF910895FC012181E9
:100510002223F1F0E959FF4F2081FC01E20FF11D88
:100520002281213359F421E025BD209381002FE75A
:1005300031EC3093850020938400279AFC01E9591F
:10054000FF4F20812F5F2083253610F0FC011182A0
:100550000895EF92FF920F931F93CF93DF93EC01D7
:100560008981813009F448C0DE011E96FE01B496EF
:1005700023E030E0E42EF12C50E391E370E0822F91
:100580008701022E02C0159507950A94E2F700FF35
:1005900009C09C9311965C931197908357965C9336
:1005A000579708C05C9311969C9311975083579668
:1005B0009C9357978B0102C0159507958A95E2F792
:1005C00000FF07C0948FD3965C93D39792AB53AB45
:1005D00006C0548FD3969C93D39752AB93AB2150C4
:1005E0003109129632962F3F8FEF380741F681E09E
:1005F0008983C959DF4F1882DF91CF911F910F91E5
:10060000FF90EF900895CF92DF92EF92FF920F93B9
:10061000CF93DF93C42FD22F6B017C012CE2C21A3F
:1006200021E0D20AE108F10825EDC21620ECD2063D
:1006300021E0E206F10408F06DC02BEF240F243016
:1006400008F068C0E0ECF0E020812C7F208328E1F6
:100650002093C100E2ECF0E020811082DC01CB01AC
:10066000880F991FAA1FBB1F880F991FAA1FBB1FA6
:100670009C01AD01220F331F441F551F220F331F52
:10068000441F551F60E074E284EF90E069D0215070
:1006900031093093C5002093C400C63071F018F4BE
:1006A000C53031F01BC0C73071F0C83091F016C0B2
:1006B000E2ECF0E08081808311C0E2ECF0E0808128
:1006C000826080830BC0E2ECF0E0808184608083F4
:1006D00005C0E2ECF0E0808186608083D53419F0BB
:1006E000DF3439F00CC0E2ECF0E08081806280837E
:1006F0000AC0E2ECF0E080818063808304C0E2EC19
:10070000F0E080818083002329F0E1ECF0E080813B
:1007100080688083DF91CF910F91FF90EF90DF9001
:10072000CF9008958091C6000895E0ECF0E09081AC
:1007300095FFFDCF8093C600089597FB072E16F412
:10074000009406D077FD08D02DD007FC05D03EF4EC
:10075000909581959F4F0895709561957F4F08956D
:10076000A1E21A2EAA1BBB1BFD010DC0AA1FBB1FB5
:10077000EE1FFF1FA217B307E407F50720F0A21B27
:10078000B30BE40BF50B661F771F881F991F1A9494
:1007900069F760957095809590959B01AC01BD01BE
:1007A000CF010895AA1BBB1B51E107C0AA1FBB1FA5
:1007B000A617B70710F0A61BB70B881F991F5A95ED
:1007C000A9F780959095BC01CD010895EE0FFF1F0C
:1007D000881F8BBF0790F691E02D19948F929F92FE
:1007E000AF92BF92CF92DF92EF92FF92CF93DF93BF
:1007F000EC01688179818A819B8161157105810590
:10080000910521F464E279ED8BE597E02DE133EF7A
:1008100041E050E038D049015A019B01AC01A7EA00
:10082000B1E44DD06B017C01ACEEB4EFA5019401B5
:1008300052D0DC01CB018C0D9D1DAE1DBF1DB7FF3D
:1008400003C00197A109B04888839983AA83BB8319
:100850009F77DF91CF91FF90EF90DF90CF90BF9087
:10086000AF909F908F900895B9CF80E092E0B6CF7F
:10087000A0E0B0E08093000290930102A0930202F6
:10088000B09303020895052E97FB16F400940FD041
:1008900057FD05D065DF07FC02D046F408C050952F
:1008A0004095309521953F4F4F4F5F4F089590955C
:1008B0008095709561957F4F8F4F9F4F08950FD012
:1008C000A59F900DB49F900DA49F800D911D1124A4
:1008D0000895B7FFF4CFF3DF821B930B0895A29F17
:1008E000B001B39FC001A39F700D811D1124911D04
:1008F000B29F700D811D1124911D0895F894FFCFB2
:1009000001000000013131313030303030303030D2
:1009100030303030303030303030313131313030D3
:1009200030303030303030303030303030303030C7
:1009300031303030303030313131303030303030B3
:1009400030303030303030303030303130313131A3
:100950003030303030303030303030303030303097
:0A09600030313030303030303000DC
:00000001FF
