S01700007831305F73656E6465725F746573742E7372656335
S113000072C000009EC000009CC000005FC10000E0
S113001098C0000096C0000094C0000092C0000088
S113002090C000008EC000008CC000008AC0000098
S113003088C0000086C0000084C0000082C00000A8
S113004080C000007EC000007CC000007AC00000B8
S1130050D9C0000076C0000074C0000072C0000067
S113006070C000006FC000006CC000006AC00000D7
S113007068C0000066C0000064C0000062C00000E8
S113008060C000005EC000005CC00000C9C0000089
S113009058C0000056C0000054C0000052C0000008
S11300A050C000004EC000004CC000004AC0000018
S11300B048C00000E0C0000044C0000042C000008E
S11300C040C000003EC000003CC000003AC0000038
S11300D038C0000036C0000034C0000032C0000048
S11300E030C00000CB0111241FBECFEFD1E2DEBF30
S11300F0CDBF00E00CBF12E0A0E0B2E0E8EEF6E015
S113010000E00BBF02C007900D92A636B107D9F7E5
S113011022E0A6E6B2E001C01D92AF3CB207E1F7CF
S113012010E0C3E7D0E000E005C021970109802F6B
S1130130FE01D0D2C237D10780E00807B1F701D160
S1130140D1C25ECF1F920F920FB60F9211240BB63D
S11301500F922F933F934F935F936F937F938F935C
S11301609F93AF93BF93CF93EF93FF9386D2C82F00
S113017090E095958795959587959595879595950F
S113018087958230910571F083309105A1F0019734
S113019029F581E375D24C2F4F7062E087E692E037
S11301A083D11CC081E36CD24C2F4F7063E087E68F
S11301B092E07AD113C080910002882319F080E381
S11301C05FD20CC09091660281E089278093660219
S11301D0811102C084E401C081E452D2FF91EF9105
S11301E0CF91BF91AF919F918F917F916F915F91CB
S11301F04F913F912F910F900BBE0F900FBE0F9018
S11302001F9018951F920F920FB60F92112415BCD0
S11302101092810027980F900FBE0F901F90189591
S11302201F920F920FB60F9211240BB60F922F93B9
S11302303F934F935F936F937F938F939F93AF936A
S1130240BF93EF93FF931092910087E692E009D158
S1130250FF91EF91BF91AF919F918F917F916F919A
S11302605F914F913F912F910F900BBE0F900FBE56
S11302700F901F9018951F920F920FB60F92112492
S11302800BB60F922F933F934F935F936F937F938C
S11302908F939F93AF93BF93EF93FF931092A1001B
S11302A087E692E0DED0FF91EF91BF91AF919F91ED
S11302B08F917F916F915F914F913F912F910F900B
S11302C00BBE0F900FBE0F901F9018951F920F92A8
S11302D00FB60F9211240BB60F922F933F934F93A7
S11302E05F936F937F938F939F93AF93BF93EF939A
S11302F0FF9387E692E0B5D081E0809391008AEA8B
S11303009FE2909395008093940083E08093A100F2
S11303108DE799EF9093A5008093A400FF91EF914E
S1130320BF91AF919F918F917F916F915F914F9109
S11303303F912F910F900BBE0F900FBE0F901F9007
S11303401895789401E02EE448E060E875E280E0D6
S113035090E004D182E484BD15BC87BD1092800076
S11303601092810081E080936F00109290001092AF
S11303709100809371001092A0001092A1008093CC
S1130380720080E28093690084E08DBB11B88FEF26
S113039084B91AB8FFCF66E087E692E001C00895F9
S11303A0CF93DF93CDB7DEB7C556D1090FB6F89416
S11303B0DEBF0FBECDBFAC01FC016083118285E6B8
S11303C0E1E0F2E0DE01119601900D928A95E1F7E9
S11303D0FE013196DA0112969E012A593F4F9191FE
S11303E09D932E173F07D9F7FA01608170E0DA0177
S11303F05C9623E030E090E381E3AB01022E02C07F
S1130400559547950A94E2F740FF0DC0868397837C
S11304108C93958F80AF91AFD2968C93D297D396CD
S11304209C93D3970CC0968387839C93858F90AFBE
S113043081AFD2969C93D297D3968C93D397215025
S11304403109329612962F3F4FEF3407B1F6CB594C
S1130450DF4F0FB6F894DEBF0FBECDBFDF91CF9153
S11304600895FC0121812223F1F0E959FF4F2081F5
S1130470FC01E20FF11D2281213359F421E025BD55
S1130480209381002FE731EC309385002093840082
S1130490279AFC01E959FF4F20812F5F20832536DD
S11304A010F0FC0111820895EF92FF920F931F93B5
S11304B0CF93DF93EC018981813009F448C0DE01D8
S11304C01E96FE01B49623E030E0E42EF12C50E3B6
S11304D091E370E0822F8701022E02C015950795E3
S11304E00A94E2F700FF09C09C9311965C9311975C
S11304F0908357965C93579708C05C9311969C938E
S11305001197508357969C9357978B0102C015956A
S113051007958A95E2F700FF07C0948FD3965C9302
S1130520D39792AB53AB06C0548FD3969C93D39777
S113053052AB93AB21503109129632962F3F8FEF75
S1130540380741F681E08983C959DF4F1882DF916A
S1130550CF911F910F91FF90EF900895CF92DF926A
S1130560EF92FF920F93CF93DF93C42FD22F6B019F
S11305707C012CE2C21A21E0D20AE108F10825ED3F
S1130580C21620ECD20621E0E206F10408F06DC0A8
S11305902BEF240F243008F068C0E0ECF0E0208159
S11305A02C7F208328E12093C100E2ECF0E020813D
S11305B01082DC01CB01880F991FAA1FBB1F880F73
S11305C0991FAA1FBB1F9C01AD01220F331F441F9B
S11305D0551F220F331F441F551F60E074E284EF40
S11305E090E056D0215031093093C5002093C400C7
S11305F0C63071F018F4C53031F01BC0C73071F04B
S1130600C83091F016C0E2ECF0E08081808311C024
S1130610E2ECF0E08081826080830BC0E2ECF0E0E9
S113062080818460808305C0E2ECF0E08081866094
S11306308083D53419F0DF3439F00CC0E2ECF0E0FB
S11306408081806280830AC0E2ECF0E08081806374
S1130650808304C0E2ECF0E080818083002329F0F1
S1130660E1ECF0E0808180688083DF91CF910F918D
S1130670FF90EF90DF90CF9008958091C600089589
S1130680E0ECF0E0908195FFFDCF8093C6000895E3
S1130690A1E21A2EAA1BBB1BFD010DC0AA1FBB1F82
S11306A0EE1FFF1FA217B307E407F50720F0A21BF4
S11306B0B30BE40BF50B661F771F881F991F1A9461
S11306C069F760957095809590959B01AC01BD018B
S11306D0CF010895EE0FFF1F881F8BBF0790F6917F
S10B06E0E02D1994F894FFCFFA
S11306E8013131313030303030303030303030302A
S11306F830303030303031313131303030303030EA
S113070830303030303030303030303031303030DC
S113071830303031313130303030303030303030CA
S113072830303030303030313031313130303030B9
S113073830303030303030303030303030313030AC
S1090748303030303000B7
S9030000FC
