S00F0000783130454D554C2E7372656309
S11300000C9434000C944B000C9473000C94490031
S11300100C9449000C9449000C9449000C94490038
S11300200C9449000C9449000C9449000C94490028
S11300300C9449000C9449000C9449000C94490018
S11300400C9449000C9449000C9449000C94490008
S11300500C9449000C9449000C9449000C944900F8
S11300600C9449000C94490011241FBECFEFD8E032
S1130070DEBFCDBF11E0A0E0B1E0E4E1F1E002C0F9
S113008005900D92A636B107D9F70E947F000C9413
S113009088000C9400001F920F920FB60F92112447
S11300A08F93EF93FF93E0910001F0E0EF5FFE4F39
S11300B08081813311F42D9A01C02D988091000123
S11300C0853640F48FEF84B9809100018F5F80936F
S11300D0000101C014B8FF91EF918F910F900FBEF2
S11300E00F901F9018951F920F920FB60F92112424
S11300F0109200010F900FBE0F901F9018957894E6
S11301008FEF84B98AE08093690083E08DBBFFCFD1
S1070110F894FFCF8D
S11301146531313130303131303130303130313199
S113012430313030313031313131303031313031BE
S113013430303130313130313030313031303030B1
S113014430303031313130303131303130303130A0
S1130154313031313031303130313131303031318D
S11301643031303031303130313130313031303080
S109017430303030300091
S9030000FC
