:100000000C9434000C944B000C9474000C94490034
:100010000C9449000C9449000C9449000C9449003C
:100020000C9449000C9449000C9449000C9449002C
:100030000C9449000C9449000C9449000C9449001C
:100040000C9449000C9449000C9449000C9449000C
:100050000C9449000C9449000C9449000C944900FC
:100060000C9449000C94490011241FBECFEFD8E036
:10007000DEBFCDBF11E0A0E0B1E0E8E1F1E002C0F9
:1000800005900D92A636B107D9F70E9480000C9416
:100090008A000C9400001F920F920FB60F92112449
:1000A0008F939F93EF93FF93E0910001F0E0EF5F58
:1000B000FE4F8081803341F42D988FE99FE00197B6
:1000C000F1F700C000002D9A80910001853618F4E8
:1000D0008F5F80930001FF91EF919F918F910F901F
:1000E0000FBE0F901F9018951F920F920FB60F9290
:1000F0001124109200010F900FBE0F901F901895C1
:1001000078948FEF84B92D9A8AE08093690083E018
:080110008DBBFFCFF894FFCF77
:100118006531313130303131303130303130313199
:1001280030313030313031313131303031313031BE
:1001380030303130313130313030313031303030B1
:1001480030303031313130303131303130303130A0
:10015800313031313031303130313131303031318D
:100168003031303031303130313130313031303080
:0601780030303030300091
:00000001FF
